:100000000C9462000C94E7050C94C0050C948A00D3
:100010000C948A000C948A000C948A000C948A0038
:100020000C948A000C948A000C948A000C948A0028
:100030000C948A000C948A000C948A000C948A0018
:100040000C9476050C948A000C948A000C948A0017
:100050000C948A000C948A000C948A000C948A00F8
:100060000C948A000C948A000000000023002600F3
:10007000290000000000250028002B0000000008D7
:10008000000201000003040700000000000000005F
:1000900000000000240027002A00010204081020AC
:1000A000408001020408102001020408102004040A
:1000B0000404040404040202020202020303030310
:1000C0000303151311241FBECFEFD8E0DEBFCDBF51
:1000D00022E0AEECB1E001C01D92AE36B207E1F70E
:1000E00011E0A0E0B1E0EEE4F7E202C005900D926D
:1000F000AE3CB107D9F710E0C2E6D0E004C02197CA
:10010000FE010E947813C136D107C9F70E9423115E
:100110000C94A5130C9400000895CF93DF931F92C5
:10012000CDB7DEB76983DC01ED91FC910280F381EC
:10013000E02D41E050E0BE016F5F7F4F09950F90C9
:10014000DF91CF910895DC01ED91FC91048CF58D48
:10015000E02D099591E089270895862F089581E083
:10016000862708953FB7F89480910B0290910C0276
:10017000A0910D02B0910E0226B5A89B05C02F3F9D
:1001800019F00196A11DB11D3FBFBA2FA92F982FBD
:100190008827820F911DA11DB11DBC01CD0142E038
:1001A000660F771F881F991F4A95D1F70895089504
:1001B000CF92DF92EF92FF920F931F93CF93DF9333
:1001C0006C017A018B01C0E0D0E0CE15DF0589F02B
:1001D000D8016D918D01D601ED91FC910190F081D6
:1001E000E02DC6010995892B11F47E0102C02196EC
:1001F000ECCFC701DF91CF911F910F91FF90EF904E
:10020000DF90CF900895CF93DF93FC0124852430B5
:10021000D1F0EC010E94310E843181F0882371F01D
:10022000883161F08C3161F4E881F9810480F581D5
:10023000E02DCE01099521E0892B19F420E001C0C1
:1002400021E0822F01C080E0DF91CF9108950F93CC
:100250001F93CF93DF931F92CDB7DEB78C01DC01E4
:10026000ED91FC910480F581E02D0995892B51F0E9
:10027000BE016F5F7F4FF80184850E941E10898147
:1002800090E002C08FEF9FEF0F90DF91CF911F9111
:100290000F910895FC0184850C945F10CF93DF9338
:1002A0001F92CDB7DEB741E050E0BE016F5F7F4FD8
:1002B000FC0184850E945F10181619061CF48981C0
:1002C00090E002C08FEF9FEF0F90DF91CF910895E4
:1002D000FC018485843011F00C943D1080E090E0A6
:1002E0000895CF92DF92EF92FF920F931F93CF93D7
:1002F000DF93CDB7DEB7AF970FB6F894DEBF0FBE72
:10030000CDBF7C016A0106E211E01A8309831C86D5
:100310001B8688EE93E0A0E0B0E08D879E87AF87D4
:10032000B88B8CEA91E09A878987188F0F8B198E8A
:100330001A8E1B8E1C8E84E089A31DA30CA31EA203
:100340001FA218A619A68091210290912202A091C5
:100350002302B09124028CA79DA7AEA7BFA78B83D1
:100360009C83AD83BE8318861F82AE014C5D5F4FB8
:10037000CE0101960E94800881309105B1F4D70129
:10038000ED91FC910484F585E02D1BA70AA78EA1B1
:100390009FA1A8A5B9A58CA79DA7AEA7BFA7A60199
:1003A000BE01665D7F4FC7010995AF960FB6F89401
:1003B000DEBF0FBECDBFDF91CF911F910F91FF9098
:1003C000EF90DF90CF9008950E947E134F925F923E
:1003D0006F927F92EF92FF920F931F93CF93DF93D1
:1003E000CDB7DEB7A1970FB6F894DEBF0FBECDBF75
:1003F0007C01FA01CB0119A2223008F42AE08E0117
:100400000F5D1F4F422E512C612C712CBF01A30197
:1004100092010E948313F901CA01015011096A3047
:1004200014F4605D01C0695CD8016C93232B242B0C
:10043000252B61F70115110591F0F80101900020BD
:10044000E9F73197AF01401B510BD701ED91FC91BA
:100450000280F381E02DB801C701099502C080E058
:1004600090E0A1960FB6F894DEBF0FBECDBFDF912E
:10047000CF911F910F91FF90EF907F906F905F90C1
:100480004F9008958F929F92AF92BF92CF92DF923A
:10049000EF92FF920F931F93CF93DF937C01EB01B9
:1004A0006C0182E0C80ED11C4701E5E08E0E911C64
:1004B00000E010E0F60141916F0150E060E070E073
:1004C0002AE0CE010E94E6015C01E881F9810190F9
:1004D000F081E02D6EE2CE0109958A0D9B1D080F7B
:1004E000191FC814D90431F7F701458150E060E0C5
:1004F00070E02AE0CE010E94E601800F911FDF919B
:10050000CF911F910F91FF90EF90DF90CF90BF9010
:10051000AF909F908F90089508958CBD9DBD0895D4
:100520008F929F92AF92BF92CF92DF92EF92FF9203
:100530000F931F93CF936C015B017A01FC01C4857B
:10054000C43041F481E090E0F6019383828380E03F
:1005500090E04EC08A014130584010F000E018E0B1
:1005600080E590E00E948D028C2F0E94FC074C01D8
:1005700063E070E08C2F0E940B0D873111F08C31FD
:1005800021F48016910660F302C000E010E080E5DF
:1005900090E00E948D029801A50160E070E08C2F30
:1005A0000E94970760E270E08C2F0E943E0662E096
:1005B00070E08C2F0E940B0D84FD10C063E070E092
:1005C0008C2F0E940B0D811104C08C2F0E94B21041
:1005D000B9CF80E590E00E948D02E9CF40E162E072
:1005E00070E08C2F0E94010D012B09F4ABCFC701E5
:1005F000CF911F910F91FF90EF90DF90CF90BF9020
:10060000AF909F908F900895833081F028F48130CF
:1006100099F08230A1F008958730A9F08830B9F0C0
:100620008430D1F4809180008F7D03C08091800060
:100630008F7780938000089584B58F7702C084B54A
:100640008F7D84BD08958091B0008F7703C0809125
:10065000B0008F7D8093B0000895CF93DF93282F53
:1006600030E0F901E458FF4F8491F901E656FF4F5D
:10067000D491F901E255FF4FC491CC2391F081113F
:100680000E940403EC2FF0E0EE0FFF1FE859FF4F2C
:10069000A591B491EC91ED2381E090E021F480E00C
:1006A00002C080E090E0DF91CF910895CF92DF9279
:1006B000EF92FF92CF930E94B200C090CF01D090F2
:1006C000D001E090D101F090D2019B01AC012C1936
:1006D0003D094E095F0969017A0138E8C31633E123
:1006E000D306E104F10408F43FC083E00E942D0327
:1006F000C82F8091CE01C81337C00E94B20060930A
:10070000CF017093D0018093D1019093D20181E009
:100710008C278093CE01C13039F58091E40190910E
:10072000E501A091E601B091E7010196A11DB11D7F
:100730008093E4019093E501A093E601B093E70173
:100740008091E0019091E101A091E201B091E3017B
:10075000C80ED91EEA1EFB1EC092E001D092E10134
:10076000E092E201F092E301CF91FF90EF90DF90F1
:10077000CF900895CF92DF92EF92FF92CF930E9495
:10078000B200C090D401D090D501E090D601F09095
:10079000D7019B01AC012C193D094E095F09690184
:1007A0007A0138E8C31633E1D306E104F10408F412
:1007B0003FC082E00E942D03C82F8091D301C8134F
:1007C00037C00E94B2006093D4017093D50180932A
:1007D000D6019093D70181E08C278093D301C1305B
:1007E00039F58091DC019091DD01A091DE01B0919D
:1007F000DF010196A11DB11D8093DC019093DD0105
:10080000A093DE01B093DF018091D8019091D901CE
:10081000A091DA01B091DB01C80ED91EEA1EFB1EC1
:10082000C092D801D092D901E092DA01F092DB01B6
:10083000CF91FF90EF90DF90CF900895CF93DF930B
:1008400090E0FC01E656FF4F2491FC01E255FF4F7A
:100850008491882361F190E0880F991FFC01E05793
:10086000FF4FC591D491FC01EE58FF4FA591B49173
:10087000611109C09FB7F8948881209582238883ED
:10088000EC912E230BC0623061F49FB7F89438814D
:10089000822F809583238883EC912E2B2C939FBFEE
:1008A00006C08FB7F894E8812E2B28838FBFDF9185
:1008B000CF9108958F929F92AF92BF92CF92DF9285
:1008C000EF92FF926B017C010E94B2004B015C0130
:1008D000C114D104E104F104F1F00E94B200DC0182
:1008E000CB0188199909AA09BB09883E9340A10543
:1008F000B10570F321E0C21AD108E108F10888EED1
:10090000880E83E0981EA11CB11CC114D104E1041F
:10091000F10419F7DDCFFF90EF90DF90CF90BF90FB
:10092000AF909F908F900895CF92DF92FF920F9398
:100930001F93CF93DF93FC012485243009F077C007
:100940006A01EB018C01F12C8F2D0E940A1181119B
:1009500003C0F801F48607C08B7F8831D1F3F3948C
:10096000F4E0FF12F1CFF8018485843009F45FC010
:1009700020910401309105012F5F3F4F11F420E0D9
:1009800030EC309305012093040140910401509113
:10099000050120E061E00E94C610F801F4848A811C
:1009A0008F3F51F48B818F3F91F48C818F3F79F48D
:1009B0008D818F3F61F438C0811109C08B81811115
:1009C00006C08C81811103C08D81882369F1C11417
:1009D000D10451F180E590E00E948D02BE016E5F6E
:1009E0007F4F8F2D90E0982F882744E050E0845F60
:1009F0009B4F0E94CD0FB6018F2D0E94690D64E0C0
:100A000070E08F2D0E943E06C8010E94310E873192
:100A100089F061E070E080E090E00E945A04C80133
:100A20000E94310E8111F0CF84E0F801848780E0CC
:100A300090E002C081E090E0DF91CF911F910F9193
:100A4000FF90DF90CF9008952FB7F8946091070240
:100A5000709108028091090290910A022FBF0895B7
:100A6000CF92DF92EF92FF921F93CF93DF93FC011F
:100A70001485143099F1EC0180E590E00E948D021C
:100A800068E070E0812F0E943E060E9424056B0101
:100A90007C01CE010E94310E8823B1F061E070E04C
:100AA00080E090E00E945A040E942405DC01CB0102
:100AB0008C199D09AE09BF09883E9340A105B10577
:100AC00040F38C850E94B210EC85F0E0EE0FFF1F22
:100AD000EC59FD4F1182108284E08C87DF91CF9119
:100AE0001F91FF90EF90DF90CF9008951F920F928B
:100AF0000FB60F9211242F933F938F939F93AF9331
:100B0000BF938091070290910802A0910902B091D1
:100B10000A023091060223E0230F2D3720F40196BC
:100B2000A11DB11D05C026E8230F0296A11DB11D10
:100B3000209306028093070290930802A093090273
:100B4000B0930A0280910B0290910C02A0910D02C9
:100B5000B0910E020196A11DB11D80930B029093DE
:100B60000C02A0930D02B0930E02BF91AF919F9122
:100B70008F913F912F910F900FBE0F901F9018955E
:100B80001F920F920FB60F9211242F933F934F9302
:100B90005F936F937F938F939F93AF93BF93EF93E5
:100BA000FF93E0910201F09103010995FF91EF910C
:100BB000BF91AF919F918F917F916F915F914F9175
:100BC0003F912F910F900FBE0F901F9018951F927D
:100BD0000F920FB60F9211242F933F934F935F9371
:100BE0006F937F938F939F93AF93BF93EF93FF93F5
:100BF000E0910001F09101010995FF91EF91BF9102
:100C0000AF919F918F917F916F915F914F913F91A4
:100C10002F910F900FBE0F901F901895CF92DF92DB
:100C2000EF92FF920F931F93CF93DF93EC017A0122
:100C30008B016C01C40ED51ECC15DD05A9F00E94F8
:100C4000AC0F8FE00E94C60F8D2F0E94C60F8C2F15
:100C50000E94C60F219680E00E94C60FF801819382
:100C60008F010E94AA0FE8CFC701DF91CF911F919A
:100C70000F91FF90EF90DF90CF900895CF93C82F02
:100C8000462F61E070E00E94010D61E070E08C2F62
:100C90000E940B0D8111F9CFCF910895CF92DF9271
:100CA000EF92FF920F931F93CF93DF93CDB7DEB7F1
:100CB000C254D1090FB6F894DEBF0FBECDBFFC0100
:100CC00082819381A481B58123968CAF9DAFAEAF15
:100CD000BFAF239721E023962FAF239723964CADE8
:100CE0005DAD6EAD7FAD23974BAB5CAB6DAB7EABBB
:100CF00089AF9AAFABAFBCAF8DA79EA7AFA7B8AB7C
:100D000028AB4DA55EA56FA578A94FA358A769A7E5
:100D10007AA72EAB4BA95CA96DA97EA949A35AA3BA
:100D20006BA37CA38B8F9C8FAD8FBE8F46E251E06F
:100D30005C8B4B8B3FEF3D8B3E8B3F8B188E5E87E2
:100D40004D872AA7CFA0D8A4E9A4FAA4CF86D88A31
:100D5000E98AFA8A2CA309A11AA12BA13CA109872F
:100D60001A872B873C875A8349838B839C83AD8367
:100D7000BE836CE271E080E090E00E945A040FB7FD
:100D8000F8948091330281113FC028EB30E0F901E3
:100D9000849144EA50E0FA01649190E0880F991F31
:100DA00080579F4FFC01A591B4918C916823D1F499
:100DB000E6E8F0E08491FA01F490F901149111232E
:100DC00089F081110E940403E12FF0E0EE0FFF1F74
:100DD000EE58FF4FA591B4918FB7F8944C914F29DD
:100DE0004C938FBF61E08AE00E941E048CB5806145
:100DF0008CBD8CB580648CBD61E08DE00E941E04CA
:100E000061E08BE00E941E04809133028F5F80932B
:100E100033020FBF229A80E590E00E948D0260E8C5
:100E200080E090E00E94FC0F65E58BE190E00E947D
:100E3000FC0F65E58AE190E00E94FC0F0E948C02A5
:100E400080E090E49093100280930F0280E090E69F
:100E5000909318028093170280E098E49093120216
:100E60008093110280E098E690931A028093190211
:100E700080E090E5909314028093130280E090E765
:100E800090931C0280931B0280E098E590931602D9
:100E90008093150280E098E790931E0280931D02D4
:100EA00080E590E00E948D0246E050E066E071E04F
:100EB00089E090E00E94CD0F44E050E0BE016D5FFC
:100EC0007F4F8FE090E00E94CD0F44E050E0BE01E4
:100ED000615F7F4F81E090E00E94CD0F44E050E0E1
:100EE000BE016B5E7F4F85E090E00E94CD0F0E94B7
:100EF0008C0281E08C8789859A85AB85BC8580933F
:100F0000210290932202A0932302B0932402CE5B8D
:100F1000DF4F0FB6F894DEBF0FBECDBFDF91CF918C
:100F20001F910F91FF90EF90DF90CF9008959F92C7
:100F3000AF92BF92CF92DF92EF92FF920F931F93E7
:100F4000CF93DF93982E8B015A01690164E270E020
:100F50000E940B0DE82EF12C65E270E0892D0E94B5
:100F60000B0DFE2CEE24E82AE701C00FD11F9E01D5
:100F70003770E92CF12CC701880F991FAC01415F34
:100F80005D4F7A01FA0180819181820F931FA9013F
:100F90004C0D5D1D4130584090F000E018E0021B00
:100FA000130BA801B5010E94CD0FA601401B510BE8
:100FB000B501600F711FF7018081918102C0A60108
:100FC000B5010E94CD0FCC0DDD1D4D2F64E270E008
:100FD000892D0E94010D4C2F65E270E0892DDF9173
:100FE000CF911F910F91FF90EF90DF90CF90BF9026
:100FF000AF909F900C94010DFF920F931F93CF938E
:10100000DF93F82EC0E0D0E08F2D0E94AE0F8C0150
:10101000892B21F08F2D0E94AE0FEC01C017D10754
:1010200099F7CE01DF91CF911F910F91FF90089515
:101030008F929F92AF92BF92CF92DF92EF92FF92E8
:101040000F931F93CF93DF93B82E4B018A01A22EEB
:1010500068E270E00E940B0DC82FD0E069E270E0FA
:101060008B2D0E940B0DDC2FCC27C82B9E013770D7
:10107000CB2CD12CC601880F991FAC01495E5D4F66
:101080006A01FA0180819181820F931FA801420FAA
:10109000531F4130584098F060E078E07B01E21A3D
:1010A000F30AA701B4010E940E06A8014E195F09B8
:1010B000B4016E0D7F1DF6018081918102C0A801EF
:1010C000B4010E940E06A1100EC0C00FD11F4D2FFB
:1010D00068E270E08B2D0E94010D4C2F69E270E0F8
:1010E0008B2D0E94010DDF91CF911F910F91FF90E9
:1010F000EF90DF90CF90BF90AF909F908F9008952A
:101100002F923F924F925F926F927F928F929F9217
:10111000AF92BF92CF92DF92EF92FF920F931F9305
:10112000CF93DF93CDB7DEB765970FB6F894DEBFE8
:101130000FBECDBF7C016B013A01FB0120E080E0D6
:1011400090E06AE03191332309F140ED430F4A30DA
:1011500080F4689FA001699F500D1124CA01C097B7
:10116000830F911D37FD9A958F3F910559F350F3E9
:1011700013C03E3289F4233079F0D301A20FB11DA0
:1011800012968C932F5F80E090E0DCCF233021F427
:10119000F301858381E021C0F7014281538164819D
:1011A00075818091360290913702A0913802B091FA
:1011B0003902481759076A077B0709F49EC10E9444
:1011C00024058701085F1F4F6F7077277C5FC80178
:1011D0000E94D40C813019F080E090E0F3C186E2E7
:1011E00091E09A838983F70182819381A481B581FB
:1011F0008B839C83AD83BE8345E350E0BE016F5F6C
:101200007F4FC8010E94F10D892B19F4C12CD12CFC
:101210006FC10E942405F7017783668376276727CD
:1012200076277A83698342E050E0BE016F5F7F4F8B
:10123000C8010E94140C81E090E09E878D8742E0F7
:1012400050E0BE01635F7F4FC8010E94140C80E034
:1012500091E09E878D8742E050E0BE01635F7F4F43
:10126000C8010E94140C1E861D8642E050E0BE019B
:10127000635F7F4FC8010E94140C42E050E0BE0142
:10128000635F7F4FC8010E94140C42E050E0BE0132
:10129000635F7F4FC8010E94140C5601F5018081E5
:1012A000882311F1F6015F018191811115C045017B
:1012B0008C189D081814190494F48F8641E050E0AE
:1012C000BE01615F7F4FC8010E94140CA401B601EA
:1012D000C8010E94140C03C08E3229F7E8CF6501C3
:1012E000FFEFCF1ADF0ADACF1F8641E050E0BE01E0
:1012F000615F7F4FC8010E94140CC12CDD24D39480
:10130000DE86CD8642E050E0BE01635F7F4FC801BC
:101310000E94140CDE86CD8642E050E0BE01635F81
:101320007F4FC8010E94140CC8010E94310D892B07
:1013300009F46CCF63E0A62EB12CF2E06F0E711CA5
:101340000E9424051B012C01C8010E94BB0B18162A
:101350001906A4F00E942405DC01CB01821993092F
:10136000A409B50989389341A105B105D0F462E318
:1013700070E080E090E00E945A04E6CFF7014281DD
:10138000538164817581808D918DA28DB38D4817B5
:1013900059076A077B0741F4848D958DC59721F421
:1013A00006C02FEF3FEF9AC02EEF3FEF97C0F70137
:1013B00081A192A10C970CF4A6C04CE050E0BE01B4
:1013C0006F5F7F4FC8010E94730B8B8190E0982F55
:1013D00088272C81822B9A8B898B298130E0322FB0
:1013E00022274A81242BF701468157814217530750
:1013F00009F086C097FF84C08F709270892B09F026
:10140000DEC0CF80D12CDC2CCC248885C82AC11426
:10141000D10409F4D1C0812C912C8D8190E0982FBA
:1014200088272E81822B8816990608F46FC0812C9C
:10143000912C41E050E0BE016D5E7F4FC8010E94DB
:10144000730B8B89982F907C09F093C0811186C013
:101450008B898111EECF42E050E0BE01615F7F4F8A
:10146000C8010E94730B42E050E0BE01635F7F4FF2
:10147000C8010E94730BC8010E94920BC8010E9410
:10148000920BC8010E94920BC8010E94920B42E08D
:1014900050E0BE016F5E7F4FC8010E94730B8F85C5
:1014A00098898115914009F069C02D853E853227C4
:1014B000232732272130310509F060C089899A89B4
:1014C0008115944009F075C044E050E0B301C801B3
:1014D0002C8B3D8B0E94730B2C893D896901F1E0B7
:1014E000AF1AB10829F02FEFC216D20609F428CF9F
:1014F000C8010E94BF0CC60165C08EEF9FEF62C09D
:101500002CEF3FEFEBCF2DEF3FEFE8CF41E050E086
:10151000BE01635F7F4FC8010E94730B8D858111EF
:1015200013C08D858111F2CFC8010E94920BC801B2
:101530000E94920BC8010E94920BC8010E94920B5C
:10154000FFEF8F1A9F0A69CF8D859FEF980F9D87B8
:10155000882339F3C8010E94920BF6CF8B899FEF45
:10156000980F9B8B882309F473CFC8010E94920BBC
:10157000F5CFC8010E94920B1B8A6ACF412C512CD7
:1015800089899A899827892798274816590638F40F
:10159000C8010E94920B8FEF481A580AF1CFEFEF63
:1015A0008E1A9E0A8C149D0409F043CF26EF3FEF5C
:1015B00095CF27EF3FEF92CF2AEF3FEF8FCF2BEF63
:1015C0003FEF8CCF65960FB6F894DEBF0FBECDBF50
:1015D000DF91CF911F910F91FF90EF90DF90CF900F
:1015E000BF90AF909F908F907F906F905F904F9043
:1015F0003F902F9008950895CF93DF931F92CDB71A
:10160000DEB76983DC01ED91FC910280F381E02D6E
:1016100041E050E0BE016F5F7F4F09950F90DF9171
:10162000CF910895FC01818D928D0895FC018489EC
:101630009589089526E231E0FC0131832083FB0186
:101640004089518962897389FC0142835383648391
:1016500075830895DC01ED91FC91008CF18DE02DF6
:101660000994CF93DF931F92CDB7DEB76983DC0176
:10167000ED91FC910280F381E02D41E050E0BE014C
:101680006F5F7F4F09950F90DF91CF910895FC0117
:101690009485FB018485981303C081E0943009F49C
:1016A00080E0089521E0FC018485843009F420E085
:1016B000822F0895CF93DF931F92CDB7DEB7FC0141
:1016C000218D328D232B49F0BE016F5F7F4F808DBE
:1016D0000E941E10898190E002C08FEF9FEF0F9053
:1016E000DF91CF910895CF93DF93FC01218D328D4F
:1016F0002115310519F48FEF9FEF11C0EC0142174E
:10170000530708F0A901888D0E945F10181619066A
:1017100094F7298D3A8D281B390B3A8F298FDF9149
:10172000CF9108950F931F93CF93DF931F92CDB75F
:10173000DEB7FC01218D328D232B61F08C0141E05D
:1017400050E0BE016F5F7F4F808D0E945F101816C2
:1017500019061CF08FEF9FEF08C0F801818D928D64
:101760000197928F818F898190E00F90DF91CF91C7
:101770001F910F9108950F931F93CF93DF93CDB7D0
:10178000DEB728970FB6F894DEBF0FBECDBF8C0131
:10179000F801818D928D892B49F0D801ED91FC9152
:1017A0000680F781E02DC8010995F2CF808D0E9457
:1017B0003D10181619065CF548E050E0BE016F5F59
:1017C0007F4FD80158968C910E945F109C0118168B
:1017D0001906DCF489819A81AB81BC81F801808B88
:1017E000918BA28BB38B8D8190E0982F88272E81CF
:1017F000820F911D958B848B2F8130E0322F222711
:101800008885280F311D328F218FC90102C080E0E9
:1018100090E028960FB6F894DEBF0FBECDBFDF91E3
:10182000CF911F910F910895AF92BF92CF92DF9207
:10183000FF920F931F93CF93DF938C015B01EA011B
:10184000FC01C688D788F08C80E590E00E948D026C
:101850008F2D0E94FC078C179D0720F48F2D0E946E
:10186000FC07EC019E01A501B6018F2D0E94970790
:101870000E948C02F801868997898C0F9D1F978B97
:10188000868BCE01DF91CF911F910F91FF90DF905A
:10189000CF90BF90AF900895CF92DF92EF92FF92DA
:1018A0000F931F93CF93DF93CDB7DEB7AF970FB6EC
:1018B000F894DEBF0FBECDBF7C016A0106E211E0E5
:1018C0001A8309831C861B8688EE93E0A0E0B0E0B3
:1018D0008D879E87AF87B88B8CEA91E09A8789873E
:1018E000188F0F8B198E1A8E1B8E1C8E84E089A385
:1018F0001DA30CA31EA21FA218A619A68091210247
:1019000090912202A0912302B09124028CA79DA75E
:10191000AEA7BFA78B839C83AD83BE8318861F822F
:10192000AE014C5D5F4FCE0101960E948008813070
:101930009105B1F4D701ED91FC910088F189E02D7A
:101940001BA70AA78EA19FA1A8A5B9A58CA79DA793
:10195000AEA7BFA7A601BE01665D7F4FC70109956F
:10196000AF960FB6F894DEBF0FBECDBFDF91CF911B
:101970001F910F91FF90EF90DF90CF900895CF933C
:10198000DF93EC01888D843061F00E94B210E88D05
:10199000F0E0EE0FFF1FEC59FD4F1182108284E042
:1019A000888FDF91CF910895EF92FF921F93CF938D
:1019B000DF93FC01208D243011F080E01CC07B01FE
:1019C000EC0110E0812F0E940A11811102C0188FD2
:1019D00005C08831E1F31F5F1430A1F7888D843092
:1019E00061F3FD86EC861A8E198E20E0A70162E075
:1019F0000E94C61081E0DF91CF911F91FF90EF9080
:101A000008959B0190E00496982F8827642F820FF9
:101A1000931F0C94FC0F0F931F93CF93DF931F9290
:101A2000CDB7DEB790E00496982F88278C01060F7B
:101A3000171F0E94AC0F8FE00E94C60F812F0E94DB
:101A4000C60F802F0E94C60F80E00E94C60F8983B8
:101A50000E94AA0F89810F90DF91CF911F910F9162
:101A60000895CF93FC01C08D80E590E00E948D0227
:101A700060E270E08C2F0E943E0662E070E08C2FE6
:101A80000E940B0D84FD19C062E070E08C2F0E9453
:101A90000B0D83FF0BC048E162E070E08C2F0E94C9
:101AA000010D0E948C0280E090E011C00E948C0227
:101AB00080E590E00E948D02E0CF40E162E070E0BE
:101AC0008C2F0E94010D0E948C0281E090E0CF914A
:101AD0000895CF93DF93C82FD62F472F60E170E092
:101AE0000E94010D4D2F61E170E08C2FDF91CF91AD
:101AF0000C94010DBF92CF92DF92EF92FF920F9361
:101B00001F93CF93DF9300D000D000D0CDB7DEB7C6
:101B1000FC01208D243009F053C06A017B018C0147
:101B2000B12C63E070E08B2D0E940B0D811103C07E
:101B3000F801B08E06C08831D9F3B394F4E0BF1237
:101B4000F0CFF801808D8430D9F196E0EEE2F1E03B
:101B5000DE01119601900D929A95E1F7F7019381BC
:101B60009F779C8394819D8395819E83B7016E5F4F
:101B70007F4F90E0982F882744E050E0845F9B4F90
:101B80000E94CD0FB601F801808D0E94690DF80109
:101B9000808D90E0982F882746E050E0BE016F5F6F
:101BA0007F4F8A5F9B4F0E94CD0FF801128E118EDE
:101BB00020E8A60162E0808D0E94C61081E001C08D
:101BC00080E026960FB6F894DEBF0FBECDBFDF9142
:101BD000CF911F910F91FF90EF90DF90CF90BF902A
:101BE0000895FF920F931F93CF93DF93FB01DC01C6
:101BF00057961C921E9256975896FC90828181119E
:101C000009C08381811106C08481811103C085814F
:101C10008823F9F041155105E1F08A01EF0180E5D3
:101C200090E00E948D02BE016E5F7F4F2F2D30E04D
:101C3000922F882744E050E0845F9B4F0E94CD0F95
:101C4000B8018F2D0E94690D0E948C0281E090E006
:101C500002C080E090E0DF91CF911F910F91FF9043
:101C60000895FC018485843011F00C940A1180E001
:101C700008954F925F926F927F928F929F92AF9250
:101C8000BF92CF92DF92EF92FF921F93CF93DF9399
:101C9000CDB7DEB72D970FB6F894DEBF0FBECDBF20
:101CA0007C0194E6A92E92E0B92E10E0C12CD12C33
:101CB00028EE422E23E0522E612C712C34E5832E27
:101CC00031E0932E1C821B824D825E826F82788669
:101CD0009A8289821D87D5012D913D915D01F70181
:101CE0008481958128173907B1F4CE0101960E94AD
:101CF000310E843169F0CE0101960E94310E8C3193
:101D000051F4CE0101960E946801892B91F003C025
:101D1000CC24C394D12C1F5F1430A1F6CD2871F4CC
:101D2000D701ED91FC910480F581E02DC701099563
:101D300005C0CE0101960E943005EDCF2D960FB65D
:101D4000F894DEBF0FBECDBFDF91CF911F91FF9002
:101D5000EF90DF90CF90BF90AF909F908F907F904B
:101D60006F905F904F9008952F923F924F925F92A5
:101D70006F927F928F929F92AF92BF92CF92DF929B
:101D8000EF92FF920F931F93CF93DF93CDB7DEB700
:101D90002E970FB6F894DEBF0FBECDBF7C016B014E
:101DA0005A010E94390E04E612E020E0612C712CE9
:101DB00088EE282E83E0382E412C512C94E5892E74
:101DC00091E0992E1C821B822D823E824F82588682
:101DD0009A8289822D87F801419151918F01F701F3
:101DE000848195814817590741F4CE0101962E87C9
:101DF0000E94310E2E858731E9F02F5F243011F7D4
:101E0000C3012E960FB6F894DEBF0FBECDBFDF9193
:101E1000CF911F910F91FF90EF90DF90CF90BF90E7
:101E2000AF909F908F907F906F905F904F903F907A
:101E30002F900895A501B601CE0101962E870E942C
:101E40009002680E791E2E85D8CF8F929F92AF9206
:101E5000BF92CF92DF92EF92FF920F931F93CF9397
:101E6000DF93CDB7DEB72D970FB6F894DEBF0FBE68
:101E7000CDBF7C0100E010E038EE832E33E0932EDE
:101E8000A12CB12C44E5C42E41E0D42E1C821B822F
:101E90008D829E82AF82B886DA82C9820D87CE019A
:101EA00001960E94310E811125C0F70144815581B0
:101EB00020E061E0802F0E94C61080E590E00E9443
:101EC0008D0263E070E0802F0E940B0D833129F4B6
:101ED00062E070E0802F0E943E060E948C02F701B3
:101EE00084819581000F111FF801EC59FD4F9183FA
:101EF000808305C00F5F1F4F0430110539F62D9602
:101F00000FB6F894DEBF0FBECDBFDF91CF911F910A
:101F10000F91FF90EF90DF90CF90BF90AF909F9088
:101F20008F9008951F93CF93DF93182F66E270E090
:101F30000E940B0DC82FD0E067E270E0812F0E9455
:101F40000B0DDC2FCC279E01282BC901DF91CF91EF
:101F50001F9108952A9A08952A9808951F93CF9360
:101F6000DF93182F60E270E00E940B0DC82FD0E0C5
:101F700061E270E0812F0E940B0DDC2FCC279E01C7
:101F8000282BC901DF91CF911F9108958EBD0000CC
:101F90000DB407FEFDCF8EB50895CF92DF92EF927C
:101FA000FF920F931F93CF93DF93EC017A018B0184
:101FB0006C01C40ED51ECC15DD05A1F00E94AC0F3E
:101FC00080EF0E94C60F8D2F0E94C60F8C2F0E949B
:101FD000C60F2196F80181918F010E94C60F0E94C1
:101FE000AA0FE9CFC701DF91CF911F910F91FF9009
:101FF000EF90DF90CF9008951F93CF93DF9300D0A1
:10200000CDB7DEB7182F6A8399830E94AC0F80EF9B
:102010000E94C60F9981892F0E94C60F812F0E94AE
:10202000C60F6A81862F0E94C60F0E94AA0F81E008
:102030000F900F90DF91CF911F9108951F93CF9331
:10204000DF9300D0CDB7DEB7182F80E590E069832D
:102050007A830E948D0221E041E050E069817A811B
:10206000812F0E9418080E948C0281E090E00F905E
:102070000F90DF91CF911F910895FF920F931F93BF
:10208000CF93DF93F82E80E590E00E948D02C0E0B0
:10209000D0E08F2D0E94920F8C01892B21F08F2D83
:1020A0000E94920FEC01C017D10799F70E948C0291
:1020B000CE01DF91CF911F910F91FF900895AF92C4
:1020C000BF92CF92DF92EF92FF921F93CF93DF9355
:1020D000182F5B017A0180E590E00E948D02C0E03C
:1020E000D0E0812F0E94920F6C01892B21F0812F6B
:1020F0000E94920FEC01CC15DD0599F7209799F419
:1021000063E070E0812F0E940B0D8431F1F0882391
:10211000E1F0C1E0D0E08C3111F4C0E0D0E0D19525
:10212000C195D10912C0EC16FD060CF4E7011C168E
:102130001D065CF420E0AE01B501812F0E94180855
:1021400060E470E0812F0E943E060E948C02CE0166
:10215000DF91CF911F91FF90EF90DF90CF90BF90D4
:10216000AF900895CF93C82F80E590E00E948D0234
:1021700060E170E08C2F0E943E064FEF62E070E05D
:102180008C2F0E94010DCF910C948C02FF920F9323
:102190001F93CF93DF9300D0CDB7DEB7F82E8A011F
:1021A0002A8369830E94B21080E590E00E948D022C
:1021B0002A816981462F422B60E070E08F2D0E94BA
:1021C000010D0115110551F400916C0210916D0281
:1021D0000F5F1F4F10936D0200936C02412F64E05C
:1021E00070E08F2D0E94010D402F65E070E08F2D73
:1021F0000E94010D61E070E08F2D0E943E060E945A
:102200008C0281E00F900F90DF91CF911F910F9181
:10221000FF9008951F93CF93DF931F92CDB7DEB742
:10222000182F80E590E00E948D0263E070E0812F1E
:102230000E940B0D89830E948C0289810F90DF918F
:10224000CF911F910895CF93DF93CDB7DEB76A97F3
:102250000FB6F894DEBF0FBECDBF789484B5826010
:1022600084BD84B5816084BD85B5826085BD85B53A
:10227000816085BD80916E00816080936E001092B8
:102280008100809181008260809381008091810033
:1022900081608093810080918000816080938000C4
:1022A0008091B10084608093B1008091B000816022
:1022B0008093B00080917A00846080937A0080914E
:1022C0007A00826080937A0080917A0081608093A6
:1022D0007A0080917A00806880937A001092C10021
:1022E00086E291E09A83898380912F029091300257
:1022F000A0913102B09132028B839C83AD83BE8367
:10230000CE0101960E944E0687E292E00E94250FC0
:1023100060E083E00E941E0486E593E09093030151
:102320008093020180916900837F846080936900BB
:10233000E99A8AEB93E090930101809300018091E8
:1023400069008C7F816080936900E89A99E288E156
:102350000FB6F894A895809360000FBE909360002C
:1023600098EEC92E93E0D92EE12CF12C04E511E072
:1023700080E0882E80E0982E0E9424052B013C01ED
:102380008091020290910302A0910402B091050293
:10239000A3019201281B390B4A0B5B0BDA01C9011F
:1023A000893E9340A105B10508F4B6C04092F801FA
:1023B0005092F9016092FA017092FB018FB7F89484
:1023C0004091E4015091E5016091E6017091E701CF
:1023D0004093E8015093E9016093EA017093EB01A7
:1023E0004091E0015091E1016091E2017091E301BF
:1023F0004093EC015093ED016093EE017093EF0177
:102400004091DC015091DD016091DE017091DF01AE
:102410004093F0015093F1016093F2017093F30146
:102420004091D8015091D9016091DA017091DB019E
:102430004093F4015093F5016093F6017093F70116
:10244000C092FC01D092FD01E092FE01F092FF01EA
:102450001092E4011092E5011092E6011092E7015A
:102460001092E0011092E1011092E2011092E3015A
:102470001092DC011092DD011092DE011092DF015A
:102480001092D8011092D9011092DA011092DB015A
:102490008FBFE8EEF1E02FEF30E08FEF90E048E102
:1024A00050E0BA014531510510F064E170E0461B7F
:1024B000570BDF01E60FF71F6D91860F911D280F57
:1024C000391FAE17BF07C1F7A92FBB27BD01680F82
:1024D000711DCB01A32FBB27BD01620F711D9B0195
:1024E00041155105F1F6492F5527632F7727FB0139
:1024F000E20FF11D3E2F2227480F511D242B352BB3
:102500003093010220930002409202025092030293
:10251000609204027092050287E292E00E94390EF6
:1025200084E6A82E82E0B82E712C1C821B82CD82FC
:10253000DE82EF82F8861A8309837D86F501219178
:1025400031915F0180912B0290912C02281739075D
:1025500039F5CE0101960E94310E873111F08C3190
:10256000F9F4CE0101960E946801892BC9F08B8194
:102570009C81998B888B8D819E81AF81B8858A8B58
:102580009B8BAC8BBD8B89859A85AB85BC858E8BEF
:102590009F8BA88FB98F1F870E878D858A8F0DC05F
:1025A0007394F4E07F12C1CF198A188ACA8ADB8A31
:1025B000EC8AFD8A1F870E877A8E8A8D843071F1AE
:1025C000BB24B394CE010E960E9403018823E1F050
:1025D000CE010E960E946801892BA1F3CE010E96C2
:1025E0000E944E018A3061F4BB2051F3A8954AE164
:1025F00050E068EE71E0CE010E960E94900204C099
:102600008D3001F3B12CDECF61E070E080E090E02E
:102610000E945A04CE010E960E9430058114910446
:1026200009F4AACE0E940000A3CEE4E3F2E086E221
:1026300091E0918380831282138214821582EAE3EF
:10264000F2E0918380831282138214821582E0E487
:10265000F2E0918380831282138214821582E6E471
:10266000F2E0918380831282138214821582ECE45B
:10267000F2E0918380831282138214821582E2E554
:10268000F2E0918380831282138214821582EFE13B
:10269000F2E0918380831282138214821582E8E52E
:1026A000F2E0918380831282138214821582EEE518
:1026B000F2E0918380831282138214821582EDE20C
:1026C000F2E09183808381EA828388E4838382E8D5
:1026D00084838FE48583E7E2F2E01382128284E14F
:1026E00091E09183808380E590E0958384830895D1
:1026F000EE0FFF1F0590F491E02D099481E090E02A
:10270000F8940C94A513A1E21A2EAA1BBB1BFD0181
:102710000DC0AA1FBB1FEE1FFF1FA217B307E407C0
:10272000F50720F0A21BB30BE40BF50B661F771F18
:10273000881F991F1A9469F76095709580959095F8
:0E2740009B01AC01BD01CF010895F894FFCFBD
:10274E00D700D70000C002FAC70000100100000039
:10275E0000000000310BB40E250F00000000E40154
:10276E00D80000000000420200000000E401010059
:10277E005E00000000000000E401E401E401E40159
:10278E00E401E401E401E401E401E401E401E40113
:10279E00000000008D00900268014E0127018C00A0
:1027AE00940471014A0130050301520BAF00AD00D4
:1027BE00470BA30000000000E401E401E401E40182
:1027CE00E401E401E401E401E401E401E401E401D3
:1027DE00E401E401E401E40100000000E401D8009A
:1027EE00E401E401E401E40100000000FC0A140C21
:1027FE00120B920B5A0BFB0AD40CBF0CF10D4C0CA6
:0E280E00310DBB0B730B2A0B1A0B160B7A0D38
:00000001FF
